{
  "contractName": "election",
  "abi": [
    {
      "inputs": [],
      "payable": false,
      "stateMutability": "nonpayable",
      "type": "constructor"
    },
    {
      "constant": true,
      "inputs": [],
      "name": "candidateCount",
      "outputs": [
        {
          "internalType": "uint256",
          "name": "",
          "type": "uint256"
        }
      ],
      "payable": false,
      "stateMutability": "view",
      "type": "function"
    },
    {
      "constant": true,
      "inputs": [
        {
          "internalType": "uint256",
          "name": "",
          "type": "uint256"
        }
      ],
      "name": "candidates",
      "outputs": [
        {
          "internalType": "uint256",
          "name": "id",
          "type": "uint256"
        },
        {
          "internalType": "string",
          "name": "name",
          "type": "string"
        },
        {
          "internalType": "uint256",
          "name": "voteCount",
          "type": "uint256"
        }
      ],
      "payable": false,
      "stateMutability": "view",
      "type": "function"
    }
  ],
  "bytecode": "0x60806040526000805534801561001457600080fd5b506100596040518060400160405280600381526020017f424a5000000000000000000000000000000000000000000000000000000000008152506100a260201b60201c565b61009d6040518060400160405280600881526020017f436f6e67726573730000000000000000000000000000000000000000000000008152506100a260201b60201c565b6101c1565b6000808154809291906001019190505550604051806060016040528060005481526020018281526020016000815250600160008054815260200190815260200160002060008201518160000155602082015181600101908051906020019061010b92919061011c565b506040820151816002015590505050565b828054600181600116156101000203166002900490600052602060002090601f016020900481019282601f1061015d57805160ff191683800117855561018b565b8280016001018555821561018b579182015b8281111561018a57825182559160200191906001019061016f565b5b509050610198919061019c565b5090565b6101be91905b808211156101ba5760008160009055506001016101a2565b5090565b90565b61020b806101d06000396000f3fe608060405234801561001057600080fd5b50600436106100365760003560e01c80633477ee2e1461003b578063a9a981a3146100f0575b600080fd5b6100676004803603602081101561005157600080fd5b810190808035906020019092919050505061010e565b6040518084815260200180602001838152602001828103825284818151815260200191508051906020019080838360005b838110156100b3578082015181840152602081019050610098565b50505050905090810190601f1680156100e05780820380516001836020036101000a031916815260200191505b5094505050505060405180910390f35b6100f86101d0565b6040518082815260200191505060405180910390f35b6001602052806000526040600020600091509050806000015490806001018054600181600116156101000203166002900480601f0160208091040260200160405190810160405280929190818152602001828054600181600116156101000203166002900480156101c05780601f10610195576101008083540402835291602001916101c0565b820191906000526020600020905b8154815290600101906020018083116101a357829003601f168201915b5050505050908060020154905083565b6000548156fea265627a7a723158206606f3db83afd8698e775088d98db8695df5a7ce2ed1c457c5fe067b720d56ad64736f6c63430005100032",
  "source": "pragma solidity ^0.5.16;\n\ncontract election{\n    \n    // Candidate defintion\n    struct Candidate{\n        uint id;\n        string name;\n        uint voteCount;\n    }\n    \n    // Keeping the candidate count\n    uint public candidateCount = 0;\n\n    // Storing candidate details in a mapping\n    mapping(uint => Candidate) public candidates;\n\n    // Constructor function to add candidates\n    constructor() public {\n        addCandidate(\"BJP\");\n        addCandidate(\"Congress\");\n    }\n\n    // private function that adds candidate to the mapping\n    function addCandidate(string memory _name) private {\n        candidateCount ++;\n        candidates[candidateCount] = Candidate(candidateCount, _name, 0);\n    }\n}",
  "sourcePath": "/Users/raghukapur/solidity/election/contracts/election.sol",
  "compiler": {
    "name": "solc",
    "version": "0.5.16+commit.9c3226ce.Emscripten.clang"
  },
  "schemaVersion": "3.4.4",
  "updatedAt": "2022-02-21T10:31:35.869Z",
  "networkType": "ethereum",
  "devdoc": {
    "methods": {}
  },
  "userdoc": {
    "methods": {}
  }
}